{
  "address": "0xe35e2DEC86d09d6F95FF4045985f4054592c5A6e",
  "abi": [
    {
      "inputs": [
        {
          "internalType": "address",
          "name": "_owner",
          "type": "address"
        },
        {
          "internalType": "address",
          "name": "_receiver",
          "type": "address"
        },
        {
          "internalType": "address",
          "name": "_underlying",
          "type": "address"
        }
      ],
      "stateMutability": "nonpayable",
      "type": "constructor"
    },
    {
      "inputs": [],
      "name": "ControllerDisabled",
      "type": "error"
    },
    {
      "inputs": [
        {
          "internalType": "address",
          "name": "spender",
          "type": "address"
        },
        {
          "internalType": "uint256",
          "name": "allowance",
          "type": "uint256"
        },
        {
          "internalType": "uint256",
          "name": "needed",
          "type": "uint256"
        }
      ],
      "name": "ERC20InsufficientAllowance",
      "type": "error"
    },
    {
      "inputs": [
        {
          "internalType": "address",
          "name": "sender",
          "type": "address"
        },
        {
          "internalType": "uint256",
          "name": "balance",
          "type": "uint256"
        },
        {
          "internalType": "uint256",
          "name": "needed",
          "type": "uint256"
        }
      ],
      "name": "ERC20InsufficientBalance",
      "type": "error"
    },
    {
      "inputs": [
        {
          "internalType": "address",
          "name": "approver",
          "type": "address"
        }
      ],
      "name": "ERC20InvalidApprover",
      "type": "error"
    },
    {
      "inputs": [
        {
          "internalType": "address",
          "name": "receiver",
          "type": "address"
        }
      ],
      "name": "ERC20InvalidReceiver",
      "type": "error"
    },
    {
      "inputs": [
        {
          "internalType": "address",
          "name": "sender",
          "type": "address"
        }
      ],
      "name": "ERC20InvalidSender",
      "type": "error"
    },
    {
      "inputs": [
        {
          "internalType": "address",
          "name": "spender",
          "type": "address"
        }
      ],
      "name": "ERC20InvalidSpender",
      "type": "error"
    },
    {
      "inputs": [
        {
          "internalType": "address",
          "name": "token",
          "type": "address"
        }
      ],
      "name": "ERC20InvalidUnderlying",
      "type": "error"
    },
    {
      "inputs": [
        {
          "internalType": "bytes32",
          "name": "key",
          "type": "bytes32"
        }
      ],
      "name": "EnumerableMapNonexistentKey",
      "type": "error"
    },
    {
      "inputs": [],
      "name": "InvalidWhitelistStatus",
      "type": "error"
    },
    {
      "inputs": [],
      "name": "NotAuthorized",
      "type": "error"
    },
    {
      "inputs": [
        {
          "internalType": "address",
          "name": "owner",
          "type": "address"
        }
      ],
      "name": "OwnableInvalidOwner",
      "type": "error"
    },
    {
      "inputs": [
        {
          "internalType": "address",
          "name": "account",
          "type": "address"
        }
      ],
      "name": "OwnableUnauthorizedAccount",
      "type": "error"
    },
    {
      "inputs": [],
      "name": "RemainderLossNotAllowed",
      "type": "error"
    },
    {
      "inputs": [
        {
          "internalType": "address",
          "name": "token",
          "type": "address"
        }
      ],
      "name": "SafeERC20FailedOperation",
      "type": "error"
    },
    {
      "anonymous": false,
      "inputs": [
        {
          "indexed": true,
          "internalType": "address",
          "name": "owner",
          "type": "address"
        },
        {
          "indexed": true,
          "internalType": "address",
          "name": "spender",
          "type": "address"
        },
        {
          "indexed": false,
          "internalType": "uint256",
          "name": "value",
          "type": "uint256"
        }
      ],
      "name": "Approval",
      "type": "event"
    },
    {
      "anonymous": false,
      "inputs": [
        {
          "indexed": true,
          "internalType": "address",
          "name": "account",
          "type": "address"
        },
        {
          "indexed": false,
          "internalType": "uint256",
          "name": "lockTimestamp",
          "type": "uint256"
        }
      ],
      "name": "LockCreated",
      "type": "event"
    },
    {
      "anonymous": false,
      "inputs": [
        {
          "indexed": true,
          "internalType": "address",
          "name": "account",
          "type": "address"
        },
        {
          "indexed": false,
          "internalType": "uint256",
          "name": "lockTimestamp",
          "type": "uint256"
        }
      ],
      "name": "LockRemoved",
      "type": "event"
    },
    {
      "anonymous": false,
      "inputs": [
        {
          "indexed": true,
          "internalType": "address",
          "name": "previousOwner",
          "type": "address"
        },
        {
          "indexed": true,
          "internalType": "address",
          "name": "newOwner",
          "type": "address"
        }
      ],
      "name": "OwnershipTransferred",
      "type": "event"
    },
    {
      "anonymous": false,
      "inputs": [
        {
          "indexed": true,
          "internalType": "address",
          "name": "remainderReceiver",
          "type": "address"
        }
      ],
      "name": "RemainderReceiverSet",
      "type": "event"
    },
    {
      "anonymous": false,
      "inputs": [
        {
          "indexed": true,
          "internalType": "address",
          "name": "from",
          "type": "address"
        },
        {
          "indexed": true,
          "internalType": "address",
          "name": "to",
          "type": "address"
        },
        {
          "indexed": false,
          "internalType": "uint256",
          "name": "value",
          "type": "uint256"
        }
      ],
      "name": "Transfer",
      "type": "event"
    },
    {
      "anonymous": false,
      "inputs": [
        {
          "indexed": true,
          "internalType": "address",
          "name": "account",
          "type": "address"
        },
        {
          "indexed": false,
          "internalType": "uint256",
          "name": "status",
          "type": "uint256"
        }
      ],
      "name": "WhitelistStatusSet",
      "type": "event"
    },
    {
      "inputs": [],
      "name": "WHITELIST_STATUS_ADMIN",
      "outputs": [
        {
          "internalType": "uint256",
          "name": "",
          "type": "uint256"
        }
      ],
      "stateMutability": "view",
      "type": "function"
    },
    {
      "inputs": [],
      "name": "WHITELIST_STATUS_DISTRIBUTOR",
      "outputs": [
        {
          "internalType": "uint256",
          "name": "",
          "type": "uint256"
        }
      ],
      "stateMutability": "view",
      "type": "function"
    },
    {
      "inputs": [],
      "name": "WHITELIST_STATUS_NONE",
      "outputs": [
        {
          "internalType": "uint256",
          "name": "",
          "type": "uint256"
        }
      ],
      "stateMutability": "view",
      "type": "function"
    },
    {
      "inputs": [
        {
          "internalType": "address",
          "name": "owner",
          "type": "address"
        },
        {
          "internalType": "address",
          "name": "spender",
          "type": "address"
        }
      ],
      "name": "allowance",
      "outputs": [
        {
          "internalType": "uint256",
          "name": "",
          "type": "uint256"
        }
      ],
      "stateMutability": "view",
      "type": "function"
    },
    {
      "inputs": [
        {
          "internalType": "address",
          "name": "spender",
          "type": "address"
        },
        {
          "internalType": "uint256",
          "name": "value",
          "type": "uint256"
        }
      ],
      "name": "approve",
      "outputs": [
        {
          "internalType": "bool",
          "name": "",
          "type": "bool"
        }
      ],
      "stateMutability": "nonpayable",
      "type": "function"
    },
    {
      "inputs": [
        {
          "internalType": "address",
          "name": "account",
          "type": "address"
        }
      ],
      "name": "balanceOf",
      "outputs": [
        {
          "internalType": "uint256",
          "name": "",
          "type": "uint256"
        }
      ],
      "stateMutability": "view",
      "type": "function"
    },
    {
      "inputs": [],
      "name": "decimals",
      "outputs": [
        {
          "internalType": "uint8",
          "name": "",
          "type": "uint8"
        }
      ],
      "stateMutability": "view",
      "type": "function"
    },
    {
      "inputs": [
        {
          "internalType": "address",
          "name": "account",
          "type": "address"
        },
        {
          "internalType": "uint256",
          "name": "amount",
          "type": "uint256"
        }
      ],
      "name": "depositFor",
      "outputs": [
        {
          "internalType": "bool",
          "name": "",
          "type": "bool"
        }
      ],
      "stateMutability": "nonpayable",
      "type": "function"
    },
    {
      "inputs": [
        {
          "internalType": "address",
          "name": "account",
          "type": "address"
        },
        {
          "internalType": "uint256",
          "name": "lockTimestamp",
          "type": "uint256"
        }
      ],
      "name": "getLockedAmountByLockTimestamp",
      "outputs": [
        {
          "internalType": "uint256",
          "name": "",
          "type": "uint256"
        }
      ],
      "stateMutability": "view",
      "type": "function"
    },
    {
      "inputs": [
        {
          "internalType": "address",
          "name": "account",
          "type": "address"
        }
      ],
      "name": "getLockedAmounts",
      "outputs": [
        {
          "internalType": "uint256[]",
          "name": "",
          "type": "uint256[]"
        },
        {
          "internalType": "uint256[]",
          "name": "",
          "type": "uint256[]"
        }
      ],
      "stateMutability": "view",
      "type": "function"
    },
    {
      "inputs": [
        {
          "internalType": "address",
          "name": "account",
          "type": "address"
        }
      ],
      "name": "getLockedAmountsLength",
      "outputs": [
        {
          "internalType": "uint256",
          "name": "",
          "type": "uint256"
        }
      ],
      "stateMutability": "view",
      "type": "function"
    },
    {
      "inputs": [
        {
          "internalType": "address",
          "name": "account",
          "type": "address"
        }
      ],
      "name": "getLockedAmountsLockTimestamps",
      "outputs": [
        {
          "internalType": "uint256[]",
          "name": "",
          "type": "uint256[]"
        }
      ],
      "stateMutability": "view",
      "type": "function"
    },
    {
      "inputs": [
        {
          "internalType": "address",
          "name": "account",
          "type": "address"
        },
        {
          "internalType": "uint256",
          "name": "lockTimestamp",
          "type": "uint256"
        }
      ],
      "name": "getWithdrawAmountsByLockTimestamp",
      "outputs": [
        {
          "internalType": "uint256",
          "name": "",
          "type": "uint256"
        },
        {
          "internalType": "uint256",
          "name": "",
          "type": "uint256"
        }
      ],
      "stateMutability": "view",
      "type": "function"
    },
    {
      "inputs": [],
      "name": "name",
      "outputs": [
        {
          "internalType": "string",
          "name": "",
          "type": "string"
        }
      ],
      "stateMutability": "view",
      "type": "function"
    },
    {
      "inputs": [],
      "name": "owner",
      "outputs": [
        {
          "internalType": "address",
          "name": "",
          "type": "address"
        }
      ],
      "stateMutability": "view",
      "type": "function"
    },
    {
      "inputs": [],
      "name": "remainderReceiver",
      "outputs": [
        {
          "internalType": "address",
          "name": "",
          "type": "address"
        }
      ],
      "stateMutability": "view",
      "type": "function"
    },
    {
      "inputs": [],
      "name": "renounceOwnership",
      "outputs": [],
      "stateMutability": "pure",
      "type": "function"
    },
    {
      "inputs": [
        {
          "internalType": "address",
          "name": "_remainderReceiver",
          "type": "address"
        }
      ],
      "name": "setRemainderReceiver",
      "outputs": [],
      "stateMutability": "nonpayable",
      "type": "function"
    },
    {
      "inputs": [
        {
          "internalType": "address",
          "name": "account",
          "type": "address"
        },
        {
          "internalType": "uint256",
          "name": "status",
          "type": "uint256"
        }
      ],
      "name": "setWhitelistStatus",
      "outputs": [],
      "stateMutability": "nonpayable",
      "type": "function"
    },
    {
      "inputs": [
        {
          "internalType": "uint256",
          "name": "status",
          "type": "uint256"
        }
      ],
      "name": "setWhitelistStatus",
      "outputs": [],
      "stateMutability": "nonpayable",
      "type": "function"
    },
    {
      "inputs": [],
      "name": "symbol",
      "outputs": [
        {
          "internalType": "string",
          "name": "",
          "type": "string"
        }
      ],
      "stateMutability": "view",
      "type": "function"
    },
    {
      "inputs": [],
      "name": "totalSupply",
      "outputs": [
        {
          "internalType": "uint256",
          "name": "",
          "type": "uint256"
        }
      ],
      "stateMutability": "view",
      "type": "function"
    },
    {
      "inputs": [
        {
          "internalType": "address",
          "name": "to",
          "type": "address"
        },
        {
          "internalType": "uint256",
          "name": "amount",
          "type": "uint256"
        }
      ],
      "name": "transfer",
      "outputs": [
        {
          "internalType": "bool",
          "name": "",
          "type": "bool"
        }
      ],
      "stateMutability": "nonpayable",
      "type": "function"
    },
    {
      "inputs": [
        {
          "internalType": "address",
          "name": "from",
          "type": "address"
        },
        {
          "internalType": "address",
          "name": "to",
          "type": "address"
        },
        {
          "internalType": "uint256",
          "name": "amount",
          "type": "uint256"
        }
      ],
      "name": "transferFrom",
      "outputs": [
        {
          "internalType": "bool",
          "name": "",
          "type": "bool"
        }
      ],
      "stateMutability": "nonpayable",
      "type": "function"
    },
    {
      "inputs": [
        {
          "internalType": "address",
          "name": "newOwner",
          "type": "address"
        }
      ],
      "name": "transferOwnership",
      "outputs": [],
      "stateMutability": "nonpayable",
      "type": "function"
    },
    {
      "inputs": [],
      "name": "underlying",
      "outputs": [
        {
          "internalType": "contract IERC20",
          "name": "",
          "type": "address"
        }
      ],
      "stateMutability": "view",
      "type": "function"
    },
    {
      "inputs": [
        {
          "internalType": "address",
          "name": "",
          "type": "address"
        }
      ],
      "name": "whitelistStatus",
      "outputs": [
        {
          "internalType": "uint256",
          "name": "",
          "type": "uint256"
        }
      ],
      "stateMutability": "view",
      "type": "function"
    },
    {
      "inputs": [
        {
          "internalType": "address",
          "name": "account",
          "type": "address"
        },
        {
          "internalType": "uint256",
          "name": "amount",
          "type": "uint256"
        }
      ],
      "name": "withdrawTo",
      "outputs": [
        {
          "internalType": "bool",
          "name": "",
          "type": "bool"
        }
      ],
      "stateMutability": "nonpayable",
      "type": "function"
    },
    {
      "inputs": [
        {
          "internalType": "address",
          "name": "account",
          "type": "address"
        },
        {
          "internalType": "uint256",
          "name": "lockTimestamp",
          "type": "uint256"
        },
        {
          "internalType": "bool",
          "name": "allowRemainderLoss",
          "type": "bool"
        }
      ],
      "name": "withdrawToByLockTimestamp",
      "outputs": [
        {
          "internalType": "bool",
          "name": "",
          "type": "bool"
        }
      ],
      "stateMutability": "nonpayable",
      "type": "function"
    },
    {
      "inputs": [
        {
          "internalType": "address",
          "name": "account",
          "type": "address"
        },
        {
          "internalType": "uint256[]",
          "name": "lockTimestamps",
          "type": "uint256[]"
        },
        {
          "internalType": "bool",
          "name": "allowRemainderLoss",
          "type": "bool"
        }
      ],
      "name": "withdrawToByLockTimestamps",
      "outputs": [
        {
          "internalType": "bool",
          "name": "",
          "type": "bool"
        }
      ],
      "stateMutability": "nonpayable",
      "type": "function"
    }
  ],
  "transactionHash": "0x9b05c9fd1341a1d2d144a7b85dc660143b00231f6e4ed7aaf55ee990f3ec0475",
  "args": [
    "0x0F6e98A756A40dD050dC78959f45559F98d3289d",
    "0x54061E18cd88D2de9af3D3D7FDF05472253B29E0",
    "0x486E2f66cD5F38772164237C69d8304045eE1651"
  ],
  "numDeployments": 1,
  "solcInputHash": "87d1bbdeeccb8d8e47bf3afc5b9da1c0",
  "bytecode": "0x60a060405234801561001057600080fd5b506040516122c53803806122c583398101604081905261002f916101dd565b8282826040518060400160405280601581526020017f5a65726f4c656e642052657761726420546f6b656e0000000000000000000000815250604051806040016040528060058152602001642d22a927b960d91b8152508282828760006001600160a01b0316816001600160a01b0316036100c557604051631e4fbdf760e01b8152600060048201526024015b60405180910390fd5b6100ce81610171565b5060046100db83826102bf565b5060056100e882826102bf565b5050306001600160a01b0383160390506101175760405163438d6fe360e01b81523060048201526024016100bc565b6001600160a01b03908116608052600680546001600160a01b03191691861691821790556040517fa2697f04f820814f2c44a4a80765636bd7cc0539020abdaccf5b959537c0a54290600090a2505050505050505061037d565b600080546001600160a01b038381166001600160a01b0319831681178455604051919092169283917f8be0079c531659141344cd1fd0a4f28419497f9722a3daafe3b4186f6b6457e09190a35050565b80516001600160a01b03811681146101d857600080fd5b919050565b6000806000606084860312156101f257600080fd5b6101fb846101c1565b9250610209602085016101c1565b9150610217604085016101c1565b90509250925092565b634e487b7160e01b600052604160045260246000fd5b600181811c9082168061024a57607f821691505b60208210810361026a57634e487b7160e01b600052602260045260246000fd5b50919050565b601f8211156102ba57806000526020600020601f840160051c810160208510156102975750805b601f840160051c820191505b818110156102b757600081556001016102a3565b50505b505050565b81516001600160401b038111156102d8576102d8610220565b6102ec816102e68454610236565b84610270565b6020601f82116001811461032057600083156103085750848201515b600019600385901b1c1916600184901b1784556102b7565b600084815260208120601f198516915b828110156103505787850151825560209485019460019092019101610330565b508482101561036e5786840151600019600387901b60f8161c191681555b50505050600190811b01905550565b608051611f116103b460003960008181610331015281816107070152818161094401528181610e620152610f200152611f116000f3fe608060405234801561001057600080fd5b50600436106101da5760003560e01c80636f307dc31161010457806395d89b41116100a2578063ccaf1c4b11610071578063ccaf1c4b1461040f578063dd62ed3e1461042f578063e186935214610468578063f2fde38b1461049057600080fd5b806395d89b41146103e4578063a9059cbb146103ec578063bd95c017146103ff578063cac01cbc1461040757600080fd5b80638a677c9f116100de5780638a677c9f1461039a5780638d2589b0146103ad5780638da5cb5b146103c057806390797498146103d157600080fd5b80636f307dc31461032f57806370a0823114610369578063715018a61461039257600080fd5b8063224b8d6e1161017c578063313ce5671161014b578063313ce567146102ce578063421a10de146102e8578063612d793d146102fb57806367f747ef1461031c57600080fd5b8063224b8d6e14610275578063235d94f31461028857806323b872dd146102a85780632f4f21e2146102bb57600080fd5b806318160ddd116101b857806318160ddd146102325780631ab27b951461023a5780631b70209a1461024d578063205c28781461026257600080fd5b8063015f011e146101df57806306fdde03146101fa578063095ea7b31461020f575b600080fd5b6101e7600181565b6040519081526020015b60405180910390f35b6102026104a3565b6040516101f19190611ad8565b61022261021d366004611b3d565b610535565b60405190151581526020016101f1565b6003546101e7565b610222610248366004611b77565b61054f565b61026061025b366004611b3d565b6105a8565b005b610222610270366004611b3d565b6105dd565b610260610283366004611bb3565b610622565b61029b610296366004611bcc565b610695565b6040516101f19190611c23565b6102226102b6366004611c36565b6106b9565b6102226102c9366004611b3d565b6106c6565b6102d6610703565b60405160ff90911681526020016101f1565b6101e76102f6366004611b3d565b610793565b61030e610309366004611bcc565b6107b7565b6040516101f1929190611c73565b61026061032a366004611bcc565b610891565b7f00000000000000000000000000000000000000000000000000000000000000005b6040516001600160a01b0390911681526020016101f1565b6101e7610377366004611bcc565b6001600160a01b031660009081526001602052604090205490565b610260610906565b6101e76103a8366004611bcc565b61091f565b600654610351906001600160a01b031681565b6000546001600160a01b0316610351565b6102226103df366004611cae565b610940565b610202610ae0565b6102226103fa366004611b3d565b610aef565b6101e7600281565b6101e7600081565b6101e761041d366004611bcc565b60076020526000908152604090205481565b6101e761043d366004611d94565b6001600160a01b03918216600090815260026020908152604080832093909416825291909152205490565b61047b610476366004611b3d565b610b02565b604080519283526020830191909152016101f1565b61026061049e366004611bcc565b610b76565b6060600480546104b290611dc7565b80601f01602080910402602001604051908101604052809291908181526020018280546104de90611dc7565b801561052b5780601f106105005761010080835404028352916020019161052b565b820191906000526020600020905b81548152906001019060200180831161050e57829003601f168201915b5050505050905090565b600033610543818585610bcf565b60019150505b92915050565b60408051600180825281830190925260009182919060208083019080368337019050509050838160008151811061058857610588611dfb565b60200260200101818152505061059f858285610940565b95945050505050565b6105b0610bdc565b6001600160a01b03821660009081526007602052604090205481146105d9576105d98282610c24565b5050565b336000818152600760205260408120549091906001146106105760405163ea8e4eb560e01b815260040160405180910390fd5b61061a8484610e1d565b949350505050565b3360008181526007602052604090205461064f5760405163ea8e4eb560e01b815260040160405180910390fd5b33600081815260076020526040902054831461069057600183036106865760405163ea8e4eb560e01b815260040160405180910390fd5b6106908184610c24565b505050565b6001600160a01b038116600090815260086020526040902060609061054990610e91565b600061061a848484610e9e565b336000818152600760205260408120549091906001146106f95760405163ea8e4eb560e01b815260040160405180910390fd5b61061a8484610ec2565b60007f00000000000000000000000000000000000000000000000000000000000000006001600160a01b031663313ce5676040518163ffffffff1660e01b8152600401602060405180830381865afa92505050801561077f575060408051601f3d908101601f1916820190925261077c91810190611e11565b60015b61078e5750601290565b905090565b919050565b6001600160a01b0382166000908152600860205260408120819061059f9084610f51565b6001600160a01b03811660009081526008602052604081206060918291906107de82610e91565b90506000815167ffffffffffffffff8111156107fc576107fc611c98565b604051908082528060200260200182016040528015610825578160200160208202803683370190505b50905060005b82518110156108855761086083828151811061084957610849611dfb565b602002602001015185610f6d90919063ffffffff16565b82828151811061087257610872611dfb565b602090810291909101015260010161082b565b50909590945092505050565b610899610bdc565b6006546001600160a01b03828116911614610903576006805473ffffffffffffffffffffffffffffffffffffffff19166001600160a01b0383169081179091556040517fa2697f04f820814f2c44a4a80765636bd7cc0539020abdaccf5b959537c0a54290600090a25b50565b60405163ea8e4eb560e01b815260040160405180910390fd5b6001600160a01b038116600090815260086020526040812061054990610f79565b60007f0000000000000000000000000000000000000000000000000000000000000000338280805b8751811015610a3257600088828151811061098557610985611dfb565b6020026020010151905060008061099c8784610b02565b6001600160a01b038916600090815260086020526040902091935091506109c39084610f84565b15610a0c57866001600160a01b03167f5981e4d35a45c9e8c96ae51ca0f24127eaad820537621c89bbe1ba8b1712b61b84604051610a0391815260200190565b60405180910390a25b610a168287611e4a565b9550610a228186611e4a565b9450505050806001019050610968565b50610a4683610a418385611e4a565b610f90565b610a5a6001600160a01b0385168984610fc6565b8015610ad25785610a97576040517f93c4aad800000000000000000000000000000000000000000000000000000000815260040160405180910390fd5b6006546001600160a01b0316610ad08115610ab25781610abf565b6000546001600160a01b03165b6001600160a01b0387169084610fc6565b505b506001979650505050505050565b6060600580546104b290611dc7565b6000610afb838361103a565b9392505050565b6001600160a01b038216600090815260086020526040812081908190610b289085610f51565b9150506000610b3685611048565b90506000670de0b6b3a7640000610b4d8385611e5d565b610b579190611e8a565b90506000610b658285611e9e565b9195509093505050505b9250929050565b610b7e610bdc565b6001600160a01b038116610bc6576040517f1e4fbdf7000000000000000000000000000000000000000000000000000000008152600060048201526024015b60405180910390fd5b610903816110c0565b610690838383600161111d565b6000546001600160a01b03163314610c22576040517f118cdaa7000000000000000000000000000000000000000000000000000000008152336004820152602401610bbd565b565b6002811115610c5f576040517fd5fb0c3c00000000000000000000000000000000000000000000000000000000815260040160405180910390fd5b80610cff576001600160a01b0382166000908152600160205260409020548015610cf9576000610c8d611225565b6001600160a01b0385166000908152600860205260409020909150610cb390828461123e565b50836001600160a01b03167f68f4429ffe70afd17cd51d3c12265a7698579e0dc36b7099e2f6d5263e739d3982604051610cef91815260200190565b60405180910390a2505b50610dc4565b6001600160a01b038216600090815260086020526040812090610d2182610e91565b905060005b8151811015610dc057610d5b828281518110610d4457610d44611dfb565b602002602001015184610f8490919063ffffffff16565b50846001600160a01b03167f5981e4d35a45c9e8c96ae51ca0f24127eaad820537621c89bbe1ba8b1712b61b838381518110610d9957610d99611dfb565b6020026020010151604051610db091815260200190565b60405180910390a2600101610d26565b5050505b6001600160a01b03821660008181526007602052604090819020839055517faa5d9115062744c4c316306720e23b83bac0a85ffd8fc0b0a43cb9e457fc62b390610e119084815260200190565b60405180910390a25050565b6000306001600160a01b03841603610e535760405163ec442f0560e01b81526001600160a01b0384166004820152602401610bbd565b610e5d3383610f90565b610e887f00000000000000000000000000000000000000000000000000000000000000008484610fc6565b50600192915050565b60606000610afb8361124b565b600033610eac858285611256565b610eb78585856112e8565b506001949350505050565b600033308103610ee757604051634b637e8f60e11b8152306004820152602401610bbd565b306001600160a01b03851603610f1b5760405163ec442f0560e01b81526001600160a01b0385166004820152602401610bbd565b610f477f0000000000000000000000000000000000000000000000000000000000000000823086611347565b6105438484611380565b6000808080610f6086866113b6565b9097909650945050505050565b6000610afb83836113f0565b600061054982611450565b6000610afb838361145b565b6001600160a01b038216610fba57604051634b637e8f60e11b815260006004820152602401610bbd565b6105d982600083611478565b6040516001600160a01b0383811660248301526044820183905261069091859182169063a9059cbb906064015b604051602081830303815290604052915060e01b6020820180517bffffffffffffffffffffffffffffffffffffffffffffffffffffffff83818316178352505050506116fd565b6000336105438185856112e8565b60004282111561105a57506000919050565b4282900362015180811161107857506702c68af0bb14000092915050565b62ed4e0081106110925750670de0b6b3a764000092915050565b62ebfc80670b1a2bc2ec5000006201517f19830102046702c68af0bb14000001915050919050565b50919050565b600080546001600160a01b0383811673ffffffffffffffffffffffffffffffffffffffff19831681178455604051919092169283917f8be0079c531659141344cd1fd0a4f28419497f9722a3daafe3b4186f6b6457e09190a35050565b6001600160a01b038416611160576040517fe602df0500000000000000000000000000000000000000000000000000000000815260006004820152602401610bbd565b6001600160a01b0383166111a3576040517f94280d6200000000000000000000000000000000000000000000000000000000815260006004820152602401610bbd565b6001600160a01b038085166000908152600260209081526040808320938716835292905220829055801561121f57826001600160a01b0316846001600160a01b03167f8c5be1e5ebec7d5bd14f71427d1e84f3dd0314c0f7b2291e5b200ac8c7c3b9258460405161121691815260200190565b60405180910390a35b50505050565b60006112346201518042611eb1565b6107899042611e9e565b600061061a848484611787565b6060610549826117a4565b6001600160a01b0383811660009081526002602090815260408083209386168352929052205460001981101561121f57818110156112d9576040517ffb8f41b20000000000000000000000000000000000000000000000000000000081526001600160a01b03841660048201526024810182905260448101839052606401610bbd565b61121f8484848403600061111d565b6001600160a01b03831661131257604051634b637e8f60e11b815260006004820152602401610bbd565b6001600160a01b03821661133c5760405163ec442f0560e01b815260006004820152602401610bbd565b610690838383611478565b6040516001600160a01b03848116602483015283811660448301526064820183905261121f9186918216906323b872dd90608401610ff3565b6001600160a01b0382166113aa5760405163ec442f0560e01b815260006004820152602401610bbd565b6105d960008383611478565b60008181526002830160205260408120548190806113e5576113d885856117b1565b925060009150610b6f9050565b600192509050610b6f565b600081815260028301602052604081205480158015611416575061141484846117b1565b155b15610afb576040517f02b5668600000000000000000000000000000000000000000000000000000000815260048101849052602401610bbd565b6000610549826117bd565b60008181526002830160205260408120819055610afb83836117c7565b80156116f2576001600160a01b038084166000818152600760205260408082205493861682529020549115159115159015806114b15750815b80156114c557506001600160a01b03841615155b80156114cf575080155b1561156e576001600160a01b0384166000908152600860205260408120906114f5611225565b905060006115038383610f51565b915061151d9050826115158884611e4a565b85919061123e565b1561156657866001600160a01b03167f68f4429ffe70afd17cd51d3c12265a7698579e0dc36b7099e2f6d5263e739d398360405161155d91815260200190565b60405180910390a25b5050506116ef565b811580156115795750805b1561169d576001600160a01b0385166000908152600860205260408120906115a082610e91565b90506000805b82518110156116945760008382815181106115c3576115c3611dfb565b6020026020010151905060006115e28287610f6d90919063ffffffff16565b9050886115ef8286611e4a565b1115611621576000611601858b611e9e565b9050611619836116118385611e9e565b89919061123e565b509050611670565b61162b8683610f84565b508a6001600160a01b03167f5981e4d35a45c9e8c96ae51ca0f24127eaad820537621c89bbe1ba8b1712b61b8360405161166791815260200190565b60405180910390a25b61167a8185611e4a565b935088841061168a575050611694565b50506001016115a6565b505050506116ef565b6001600160a01b038516158015906116b3575081155b80156116c757506001600160a01b03841615155b80156116d1575080155b156116ef5760405163ea8e4eb560e01b815260040160405180910390fd5b50505b6106908383836117d3565b600080602060008451602086016000885af180611720576040513d6000823e3d81fd5b50506000513d91508115611738578060011415611745565b6001600160a01b0384163b155b1561121f576040517f5274afe70000000000000000000000000000000000000000000000000000000081526001600160a01b0385166004820152602401610bbd565b6000828152600284016020526040812082905561061a8484611916565b60606000610afb83611922565b6000610afb838361197e565b6000610549825490565b6000610afb8383611996565b6001600160a01b0383166117fe5780600360008282546117f39190611e4a565b909155506118899050565b6001600160a01b0383166000908152600160205260409020548181101561186a576040517fe450d38c0000000000000000000000000000000000000000000000000000000081526001600160a01b03851660048201526024810182905260448101839052606401610bbd565b6001600160a01b03841660009081526001602052604090209082900390555b6001600160a01b0382166118a5576003805482900390556118c4565b6001600160a01b03821660009081526001602052604090208054820190555b816001600160a01b0316836001600160a01b03167fddf252ad1be2c89b69c2b068fc378daa952ba7f163c4a11628f55a4df523b3ef8360405161190991815260200190565b60405180910390a3505050565b6000610afb8383611a89565b60608160000180548060200260200160405190810160405280929190818152602001828054801561197257602002820191906000526020600020905b81548152602001906001019080831161195e575b50505050509050919050565b60008181526001830160205260408120541515610afb565b60008181526001830160205260408120548015611a7f5760006119ba600183611e9e565b85549091506000906119ce90600190611e9e565b9050808214611a335760008660000182815481106119ee576119ee611dfb565b9060005260206000200154905080876000018481548110611a1157611a11611dfb565b6000918252602080832090910192909255918252600188019052604090208390555b8554869080611a4457611a44611ec5565b600190038181906000526020600020016000905590558560010160008681526020019081526020016000206000905560019350505050610549565b6000915050610549565b6000818152600183016020526040812054611ad057508154600181810184556000848152602080822090930184905584548482528286019093526040902091909155610549565b506000610549565b602081526000825180602084015260005b81811015611b065760208186018101516040868401015201611ae9565b506000604082850101526040601f19601f83011684010191505092915050565b80356001600160a01b038116811461078e57600080fd5b60008060408385031215611b5057600080fd5b611b5983611b26565b946020939093013593505050565b8035801515811461078e57600080fd5b600080600060608486031215611b8c57600080fd5b611b9584611b26565b925060208401359150611baa60408501611b67565b90509250925092565b600060208284031215611bc557600080fd5b5035919050565b600060208284031215611bde57600080fd5b610afb82611b26565b600081518084526020840193506020830160005b82811015611c19578151865260209586019590910190600101611bfb565b5093949350505050565b602081526000610afb6020830184611be7565b600080600060608486031215611c4b57600080fd5b611c5484611b26565b9250611c6260208501611b26565b929592945050506040919091013590565b604081526000611c866040830185611be7565b828103602084015261059f8185611be7565b634e487b7160e01b600052604160045260246000fd5b600080600060608486031215611cc357600080fd5b611ccc84611b26565b9250602084013567ffffffffffffffff811115611ce857600080fd5b8401601f81018613611cf957600080fd5b803567ffffffffffffffff811115611d1357611d13611c98565b8060051b604051601f19603f830116810181811067ffffffffffffffff82111715611d4057611d40611c98565b604052918252602081840181019290810189841115611d5e57600080fd5b6020850194505b83851015611d8157843580825260209586019590935001611d65565b509450611baa9250505060408501611b67565b60008060408385031215611da757600080fd5b611db083611b26565b9150611dbe60208401611b26565b90509250929050565b600181811c90821680611ddb57607f821691505b6020821081036110ba57634e487b7160e01b600052602260045260246000fd5b634e487b7160e01b600052603260045260246000fd5b600060208284031215611e2357600080fd5b815160ff81168114610afb57600080fd5b634e487b7160e01b600052601160045260246000fd5b8082018082111561054957610549611e34565b808202811582820484141761054957610549611e34565b634e487b7160e01b600052601260045260246000fd5b600082611e9957611e99611e74565b500490565b8181038181111561054957610549611e34565b600082611ec057611ec0611e74565b500690565b634e487b7160e01b600052603160045260246000fdfea264697066735822122027c6bdcbc84885c1d437bbdb8280ec9c82e6b8678a55c6d6ec6bb0441bdd48ae64736f6c634300081c0033",
  "devdoc": {
    "author": "Euler Labs (https://www.eulerlabs.com/)ZeroLend (https://zerolend.xyz/)",
    "custom:security-contact": "security@euler.xyz",
    "details": "This contract implements a specific unlock schedule for reward tokens. Tokens are unlocked over a 180-day period. 20% is unlocked immediately, and the remaining 80% unlocks linearly over 6 months, reaching full unlock at maturity. The linear unlock starts LOCK_NORMALIZATION_FACTOR after the lock is created.",
    "errors": {
      "ERC20InsufficientAllowance(address,uint256,uint256)": [
        {
          "details": "Indicates a failure with the `spender`s `allowance`. Used in transfers.",
          "params": {
            "allowance": "Amount of tokens a `spender` is allowed to operate with.",
            "needed": "Minimum amount required to perform a transfer.",
            "spender": "Address that may be allowed to operate on tokens without being their owner."
          }
        }
      ],
      "ERC20InsufficientBalance(address,uint256,uint256)": [
        {
          "details": "Indicates an error related to the current `balance` of a `sender`. Used in transfers.",
          "params": {
            "balance": "Current balance for the interacting account.",
            "needed": "Minimum amount required to perform a transfer.",
            "sender": "Address whose tokens are being transferred."
          }
        }
      ],
      "ERC20InvalidApprover(address)": [
        {
          "details": "Indicates a failure with the `approver` of a token to be approved. Used in approvals.",
          "params": {
            "approver": "Address initiating an approval operation."
          }
        }
      ],
      "ERC20InvalidReceiver(address)": [
        {
          "details": "Indicates a failure with the token `receiver`. Used in transfers.",
          "params": {
            "receiver": "Address to which tokens are being transferred."
          }
        }
      ],
      "ERC20InvalidSender(address)": [
        {
          "details": "Indicates a failure with the token `sender`. Used in transfers.",
          "params": {
            "sender": "Address whose tokens are being transferred."
          }
        }
      ],
      "ERC20InvalidSpender(address)": [
        {
          "details": "Indicates a failure with the `spender` to be approved. Used in approvals.",
          "params": {
            "spender": "Address that may be allowed to operate on tokens without being their owner."
          }
        }
      ],
      "ERC20InvalidUnderlying(address)": [
        {
          "details": "The underlying token couldn't be wrapped."
        }
      ],
      "EnumerableMapNonexistentKey(bytes32)": [
        {
          "details": "Query for a nonexistent map key."
        }
      ],
      "OwnableInvalidOwner(address)": [
        {
          "details": "The owner is not a valid owner account. (eg. `address(0)`)"
        }
      ],
      "OwnableUnauthorizedAccount(address)": [
        {
          "details": "The caller account is not authorized to perform an operation."
        }
      ],
      "SafeERC20FailedOperation(address)": [
        {
          "details": "An operation with an ERC-20 token failed."
        }
      ]
    },
    "events": {
      "Approval(address,address,uint256)": {
        "details": "Emitted when the allowance of a `spender` for an `owner` is set by a call to {approve}. `value` is the new allowance."
      },
      "LockCreated(address,uint256)": {
        "params": {
          "account": "The address of the account for which the lock was created",
          "lockTimestamp": "The normalized timestamp of the created lock"
        }
      },
      "LockRemoved(address,uint256)": {
        "params": {
          "account": "The address of the account for which the lock was removed",
          "lockTimestamp": "The normalized timestamp of the removed lock"
        }
      },
      "RemainderReceiverSet(address)": {
        "params": {
          "remainderReceiver": "The address of the new remainder receiver"
        }
      },
      "Transfer(address,address,uint256)": {
        "details": "Emitted when `value` tokens are moved from one account (`from`) to another (`to`). Note that `value` may be zero."
      },
      "WhitelistStatusSet(address,uint256)": {
        "params": {
          "account": "The address of the account",
          "status": "The new whitelist status"
        }
      }
    },
    "kind": "dev",
    "methods": {
      "allowance(address,address)": {
        "details": "See {IERC20-allowance}."
      },
      "approve(address,uint256)": {
        "details": "See {IERC20-approve}. NOTE: If `value` is the maximum `uint256`, the allowance is not updated on `transferFrom`. This is semantically equivalent to an infinite approval. Requirements: - `spender` cannot be the zero address."
      },
      "balanceOf(address)": {
        "details": "See {IERC20-balanceOf}."
      },
      "constructor": {
        "params": {
          "_owner": "Address of the contract owner",
          "_receiver": "Address of the receiver",
          "_underlying": "Address of the underlying ERC20 token"
        }
      },
      "decimals()": {
        "details": "See {ERC20-decimals}."
      },
      "depositFor(address,uint256)": {
        "params": {
          "account": "The address to deposit tokens for",
          "amount": "The amount of tokens to deposit"
        },
        "returns": {
          "_0": "bool indicating success of the deposit"
        }
      },
      "getLockedAmountByLockTimestamp(address,uint256)": {
        "params": {
          "account": "The address to check",
          "lockTimestamp": "The normalized lock timestamp to check"
        },
        "returns": {
          "_0": "The locked amount at the specified timestamp"
        }
      },
      "getLockedAmounts(address)": {
        "params": {
          "account": "The address to check"
        },
        "returns": {
          "_0": "Two arrays: normalized lock timestamps and corresponding amounts"
        }
      },
      "getLockedAmountsLength(address)": {
        "params": {
          "account": "The address to check"
        },
        "returns": {
          "_0": "The number of locked amount entries"
        }
      },
      "getLockedAmountsLockTimestamps(address)": {
        "params": {
          "account": "The address to check"
        },
        "returns": {
          "_0": "An array of normalized lock timestamps"
        }
      },
      "getWithdrawAmountsByLockTimestamp(address,uint256)": {
        "params": {
          "account": "The address of the account to check",
          "lockTimestamp": "The normalized lock timestamp to check for withdraw amounts"
        },
        "returns": {
          "_0": "accountAmount The amount that can be unlocked and sent to the account",
          "_1": "remainderAmount The amount that will be transferred to the configured receiver address"
        }
      },
      "name()": {
        "details": "Returns the name of the token."
      },
      "owner()": {
        "details": "Returns the address of the current owner."
      },
      "setRemainderReceiver(address)": {
        "params": {
          "_remainderReceiver": "The address of the new remainder receiver. If zero address, the remainder of the tokens"
        }
      },
      "setWhitelistStatus(address,uint256)": {
        "params": {
          "account": "The address to set the whitelist status for",
          "status": "The new whitelist status to set"
        }
      },
      "setWhitelistStatus(uint256)": {
        "params": {
          "status": "The new whitelist status to set"
        }
      },
      "symbol()": {
        "details": "Returns the symbol of the token, usually a shorter version of the name."
      },
      "totalSupply()": {
        "details": "See {IERC20-totalSupply}."
      },
      "transfer(address,uint256)": {
        "params": {
          "amount": "The amount of tokens to transfer",
          "to": "The address to transfer tokens to"
        },
        "returns": {
          "_0": "bool indicating success of the transfer"
        }
      },
      "transferFrom(address,address,uint256)": {
        "params": {
          "amount": "The amount of tokens to transfer",
          "from": "The address to transfer tokens from",
          "to": "The address to transfer tokens to"
        },
        "returns": {
          "_0": "bool indicating success of the transfer"
        }
      },
      "transferOwnership(address)": {
        "details": "Transfers ownership of the contract to a new account (`newOwner`). Can only be called by the current owner."
      },
      "underlying()": {
        "details": "Returns the address of the underlying ERC-20 token that is being wrapped."
      },
      "withdrawTo(address,uint256)": {
        "params": {
          "account": "The address to withdraw tokens to",
          "amount": "The amount of tokens to withdraw"
        },
        "returns": {
          "_0": "bool indicating success of the withdrawal"
        }
      },
      "withdrawToByLockTimestamp(address,uint256,bool)": {
        "params": {
          "account": "The address to receive the withdrawn tokens",
          "allowRemainderLoss": "If true, is it allowed for the remainder of the tokens to be transferred to the receiver address configured as per the lock schedule. If false and the calculated remainder amount is non-zero, the withdrawal will revert.",
          "lockTimestamp": "The normalized lock timestamp to withdraw tokens for"
        },
        "returns": {
          "_0": "bool indicating success of the withdrawal"
        }
      },
      "withdrawToByLockTimestamps(address,uint256[],bool)": {
        "params": {
          "account": "The address to receive the withdrawn tokens",
          "allowRemainderLoss": "If true, is it allowed for the remainder of the tokens to be transferred to the receiver address configured as per the lock schedule. If false and the calculated remainder amount is non-zero, the withdrawal will revert.",
          "lockTimestamps": "An array of normalized lock timestamps to withdraw tokens for"
        },
        "returns": {
          "_0": "bool indicating success of the withdrawal"
        }
      }
    },
    "title": "RewardToken",
    "version": 1
  },
  "userdoc": {
    "errors": {
      "InvalidWhitelistStatus()": [
        {
          "notice": "Error thrown when an invalid whitelist status is provided"
        }
      ],
      "RemainderLossNotAllowed()": [
        {
          "notice": "Thrown when the remainder loss is not allowed but the calculated remainder amount is non-zero"
        }
      ]
    },
    "events": {
      "LockCreated(address,uint256)": {
        "notice": "Emitted when a new lock is created for an account"
      },
      "LockRemoved(address,uint256)": {
        "notice": "Emitted when a lock is removed for an account"
      },
      "RemainderReceiverSet(address)": {
        "notice": "Emitted when the remainder receiver address is set or changed"
      },
      "WhitelistStatusSet(address,uint256)": {
        "notice": "Emitted when an account's whitelist status changes"
      }
    },
    "kind": "user",
    "methods": {
      "WHITELIST_STATUS_ADMIN()": {
        "notice": "Constant representing admin whitelist status"
      },
      "WHITELIST_STATUS_DISTRIBUTOR()": {
        "notice": "Constant representing distributor whitelist status"
      },
      "WHITELIST_STATUS_NONE()": {
        "notice": "Constant representing no whitelist status"
      },
      "constructor": {
        "notice": "Constructor for RewardToken"
      },
      "depositFor(address,uint256)": {
        "notice": "Deposits tokens for a specified account"
      },
      "getLockedAmountByLockTimestamp(address,uint256)": {
        "notice": "Gets the locked amount for an account at a specific normalized lock timestamp"
      },
      "getLockedAmounts(address)": {
        "notice": "Gets all locked amounts for an account"
      },
      "getLockedAmountsLength(address)": {
        "notice": "Gets the number of locked amount entries for an account"
      },
      "getLockedAmountsLockTimestamps(address)": {
        "notice": "Gets all the normalized lock timestamps of locked amounts for an account"
      },
      "getWithdrawAmountsByLockTimestamp(address,uint256)": {
        "notice": "Calculates the withdraw amounts for a given account and normalized lock timestamp"
      },
      "remainderReceiver()": {
        "notice": "Address that will receive the remainder of the tokens after the lock schedule is applied. If zero address, the remainder of the tokens will be sent to the owner."
      },
      "renounceOwnership()": {
        "notice": "Disables the ability to renounce ownership of the contract"
      },
      "setRemainderReceiver(address)": {
        "notice": "Sets a new remainder receiver address"
      },
      "setWhitelistStatus(address,uint256)": {
        "notice": "Sets the whitelist status for a specified account"
      },
      "setWhitelistStatus(uint256)": {
        "notice": "Allows a whitelisted account to degrade its own whitelist status"
      },
      "transfer(address,uint256)": {
        "notice": "Transfers tokens to a specified address"
      },
      "transferFrom(address,address,uint256)": {
        "notice": "Transfers tokens from one address to another"
      },
      "whitelistStatus(address)": {
        "notice": "Mapping to store whitelist status of an addresses"
      },
      "withdrawTo(address,uint256)": {
        "notice": "Withdraws tokens to a specified account"
      },
      "withdrawToByLockTimestamp(address,uint256,bool)": {
        "notice": "Withdraws tokens to a specified account based on a specific normalized lock timestamp as per the lock schedule. The remainder of the tokens are transferred to the receiver address configured."
      },
      "withdrawToByLockTimestamps(address,uint256[],bool)": {
        "notice": "Withdraws tokens to a specified account based on multiple normalized lock timestamps as per the lock schedule. The remainder of the tokens are transferred to the receiver address configured."
      }
    },
    "notice": "A wrapper for locked ERC20 tokens that can be withdrawn as per the lock schedule.",
    "version": 1
  },
  "storageLayout": {
    "storage": [
      {
        "astId": 8,
        "contract": "contracts/RewardToken.sol:RewardToken",
        "label": "_owner",
        "offset": 0,
        "slot": "0",
        "type": "t_address"
      },
      {
        "astId": 397,
        "contract": "contracts/RewardToken.sol:RewardToken",
        "label": "_balances",
        "offset": 0,
        "slot": "1",
        "type": "t_mapping(t_address,t_uint256)"
      },
      {
        "astId": 403,
        "contract": "contracts/RewardToken.sol:RewardToken",
        "label": "_allowances",
        "offset": 0,
        "slot": "2",
        "type": "t_mapping(t_address,t_mapping(t_address,t_uint256))"
      },
      {
        "astId": 405,
        "contract": "contracts/RewardToken.sol:RewardToken",
        "label": "_totalSupply",
        "offset": 0,
        "slot": "3",
        "type": "t_uint256"
      },
      {
        "astId": 407,
        "contract": "contracts/RewardToken.sol:RewardToken",
        "label": "_name",
        "offset": 0,
        "slot": "4",
        "type": "t_string_storage"
      },
      {
        "astId": 409,
        "contract": "contracts/RewardToken.sol:RewardToken",
        "label": "_symbol",
        "offset": 0,
        "slot": "5",
        "type": "t_string_storage"
      },
      {
        "astId": 4355,
        "contract": "contracts/RewardToken.sol:RewardToken",
        "label": "remainderReceiver",
        "offset": 0,
        "slot": "6",
        "type": "t_address"
      },
      {
        "astId": 4360,
        "contract": "contracts/RewardToken.sol:RewardToken",
        "label": "whitelistStatus",
        "offset": 0,
        "slot": "7",
        "type": "t_mapping(t_address,t_uint256)"
      },
      {
        "astId": 4366,
        "contract": "contracts/RewardToken.sol:RewardToken",
        "label": "lockedAmounts",
        "offset": 0,
        "slot": "8",
        "type": "t_mapping(t_address,t_struct(UintToUintMap)1893_storage)"
      }
    ],
    "types": {
      "t_address": {
        "encoding": "inplace",
        "label": "address",
        "numberOfBytes": "20"
      },
      "t_array(t_bytes32)dyn_storage": {
        "base": "t_bytes32",
        "encoding": "dynamic_array",
        "label": "bytes32[]",
        "numberOfBytes": "32"
      },
      "t_bytes32": {
        "encoding": "inplace",
        "label": "bytes32",
        "numberOfBytes": "32"
      },
      "t_mapping(t_address,t_mapping(t_address,t_uint256))": {
        "encoding": "mapping",
        "key": "t_address",
        "label": "mapping(address => mapping(address => uint256))",
        "numberOfBytes": "32",
        "value": "t_mapping(t_address,t_uint256)"
      },
      "t_mapping(t_address,t_struct(UintToUintMap)1893_storage)": {
        "encoding": "mapping",
        "key": "t_address",
        "label": "mapping(address => struct EnumerableMap.UintToUintMap)",
        "numberOfBytes": "32",
        "value": "t_struct(UintToUintMap)1893_storage"
      },
      "t_mapping(t_address,t_uint256)": {
        "encoding": "mapping",
        "key": "t_address",
        "label": "mapping(address => uint256)",
        "numberOfBytes": "32",
        "value": "t_uint256"
      },
      "t_mapping(t_bytes32,t_bytes32)": {
        "encoding": "mapping",
        "key": "t_bytes32",
        "label": "mapping(bytes32 => bytes32)",
        "numberOfBytes": "32",
        "value": "t_bytes32"
      },
      "t_mapping(t_bytes32,t_uint256)": {
        "encoding": "mapping",
        "key": "t_bytes32",
        "label": "mapping(bytes32 => uint256)",
        "numberOfBytes": "32",
        "value": "t_uint256"
      },
      "t_string_storage": {
        "encoding": "bytes",
        "label": "string",
        "numberOfBytes": "32"
      },
      "t_struct(Bytes32Set)3895_storage": {
        "encoding": "inplace",
        "label": "struct EnumerableSet.Bytes32Set",
        "members": [
          {
            "astId": 3894,
            "contract": "contracts/RewardToken.sol:RewardToken",
            "label": "_inner",
            "offset": 0,
            "slot": "0",
            "type": "t_struct(Set)3701_storage"
          }
        ],
        "numberOfBytes": "64"
      },
      "t_struct(Bytes32ToBytes32Map)1679_storage": {
        "encoding": "inplace",
        "label": "struct EnumerableMap.Bytes32ToBytes32Map",
        "members": [
          {
            "astId": 1674,
            "contract": "contracts/RewardToken.sol:RewardToken",
            "label": "_keys",
            "offset": 0,
            "slot": "0",
            "type": "t_struct(Bytes32Set)3895_storage"
          },
          {
            "astId": 1678,
            "contract": "contracts/RewardToken.sol:RewardToken",
            "label": "_values",
            "offset": 0,
            "slot": "2",
            "type": "t_mapping(t_bytes32,t_bytes32)"
          }
        ],
        "numberOfBytes": "96"
      },
      "t_struct(Set)3701_storage": {
        "encoding": "inplace",
        "label": "struct EnumerableSet.Set",
        "members": [
          {
            "astId": 3696,
            "contract": "contracts/RewardToken.sol:RewardToken",
            "label": "_values",
            "offset": 0,
            "slot": "0",
            "type": "t_array(t_bytes32)dyn_storage"
          },
          {
            "astId": 3700,
            "contract": "contracts/RewardToken.sol:RewardToken",
            "label": "_positions",
            "offset": 0,
            "slot": "1",
            "type": "t_mapping(t_bytes32,t_uint256)"
          }
        ],
        "numberOfBytes": "64"
      },
      "t_struct(UintToUintMap)1893_storage": {
        "encoding": "inplace",
        "label": "struct EnumerableMap.UintToUintMap",
        "members": [
          {
            "astId": 1892,
            "contract": "contracts/RewardToken.sol:RewardToken",
            "label": "_inner",
            "offset": 0,
            "slot": "0",
            "type": "t_struct(Bytes32ToBytes32Map)1679_storage"
          }
        ],
        "numberOfBytes": "96"
      },
      "t_uint256": {
        "encoding": "inplace",
        "label": "uint256",
        "numberOfBytes": "32"
      }
    }
  }
}